{
  "contractName": "Integrity",
  "abi": [
    {
      "anonymous": false,
      "inputs": [
        {
          "indexed": false,
          "internalType": "string",
          "name": "dataOwner",
          "type": "string"
        },
        {
          "indexed": false,
          "internalType": "string",
          "name": "name",
          "type": "string"
        },
        {
          "indexed": false,
          "internalType": "string",
          "name": "hash",
          "type": "string"
        }
      ],
      "name": "FileUploaded",
      "type": "event"
    },
    {
      "anonymous": false,
      "inputs": [
        {
          "indexed": false,
          "internalType": "uint8",
          "name": "version",
          "type": "uint8"
        }
      ],
      "name": "Initialized",
      "type": "event"
    },
    {
      "inputs": [],
      "name": "owner",
      "outputs": [
        {
          "internalType": "address",
          "name": "",
          "type": "address"
        }
      ],
      "stateMutability": "view",
      "type": "function",
      "constant": true
    },
    {
      "inputs": [],
      "name": "initialize",
      "outputs": [],
      "stateMutability": "nonpayable",
      "type": "function"
    },
    {
      "inputs": [
        {
          "internalType": "string",
          "name": "dataOwner",
          "type": "string"
        },
        {
          "internalType": "string",
          "name": "name",
          "type": "string"
        },
        {
          "internalType": "string",
          "name": "hash",
          "type": "string"
        }
      ],
      "name": "upload",
      "outputs": [],
      "stateMutability": "nonpayable",
      "type": "function"
    },
    {
      "inputs": [
        {
          "internalType": "string",
          "name": "dataOwner",
          "type": "string"
        },
        {
          "internalType": "string",
          "name": "name",
          "type": "string"
        },
        {
          "internalType": "string",
          "name": "hash",
          "type": "string"
        }
      ],
      "name": "verify",
      "outputs": [
        {
          "internalType": "bool",
          "name": "",
          "type": "bool"
        }
      ],
      "stateMutability": "view",
      "type": "function",
      "constant": true
    },
    {
      "inputs": [],
      "name": "random",
      "outputs": [
        {
          "internalType": "bool",
          "name": "",
          "type": "bool"
        }
      ],
      "stateMutability": "pure",
      "type": "function",
      "constant": true
    }
  ],
  "bytecode": "0x608060405234801561001057600080fd5b50610e63806100206000396000f3fe608060405234801561001057600080fd5b50600436106100575760003560e01c80635ec01e4d1461005c5780638129fc1c1461007a5780638da5cb5b146100845780638dee8192146100a2578063ff96254b146100be575b600080fd5b6100646100ee565b604051610071919061084e565b60405180910390f35b6100826100f7565b005b61008c61026e565b60405161009991906108aa565b60405180910390f35b6100bc60048036038101906100b79190610934565b610294565b005b6100d860048036038101906100d39190610934565b61045e565b6040516100e5919061084e565b60405180910390f35b60006001905090565b60008060019054906101000a900460ff161590508080156101285750600160008054906101000a900460ff1660ff16105b806101555750610137306106a9565b1580156101545750600160008054906101000a900460ff1660ff16145b5b610194576040517f08c379a000000000000000000000000000000000000000000000000000000000815260040161018b90610a6b565b60405180910390fd5b60016000806101000a81548160ff021916908360ff16021790555080156101d1576001600060016101000a81548160ff0219169083151502179055505b33600060026101000a81548173ffffffffffffffffffffffffffffffffffffffff021916908373ffffffffffffffffffffffffffffffffffffffff160217905550801561026b5760008060016101000a81548160ff0219169083151502179055507f7f26b83ff96e1f2b6a682f133852f6798a09c465da95921460cefb384740249860016040516102629190610add565b60405180910390a15b50565b600060029054906101000a900473ffffffffffffffffffffffffffffffffffffffff1681565b600060029054906101000a900473ffffffffffffffffffffffffffffffffffffffff1673ffffffffffffffffffffffffffffffffffffffff163373ffffffffffffffffffffffffffffffffffffffff1614610324576040517f08c379a000000000000000000000000000000000000000000000000000000000815260040161031b90610b6a565b60405180910390fd5b60018686604051610336929190610bc9565b9081526020016040518091039020604051806040016040528086868080601f016020809104026020016040519081016040528093929190818152602001838380828437600081840152601f19601f82011690508083019250505050505050815260200184848080601f016020809104026020016040519081016040528093929190818152602001838380828437600081840152601f19601f82011690508083019250505050505050815250908060018154018082558091505060019003906000526020600020016000909190919091509060026104149291906106cc565b507f09b246ac4d9e85a780a82c73e7faa18867582780dcae0a1bedbfdda2cc55c8d186868686868660405161044e96959493929190610c20565b60405180910390a1505050505050565b60008060029054906101000a900473ffffffffffffffffffffffffffffffffffffffff1673ffffffffffffffffffffffffffffffffffffffff163373ffffffffffffffffffffffffffffffffffffffff16146104ef576040517f08c379a00000000000000000000000000000000000000000000000000000000081526004016104e690610b6a565b60405180910390fd5b60005b60018888604051610504929190610bc9565b908152602001604051809103902080549050811015610699578585604051602001610530929190610bc9565b6040516020818303038152906040528051906020012060018989604051610558929190610bc9565b9081526020016040518091039020828154811061057857610577610c72565b5b9060005260206000200160008154811061059557610594610c72565b5b906000526020600020016040516020016105af9190610d95565b60405160208183030381529060405280519060200120148015610677575083836040516020016105e0929190610bc9565b6040516020818303038152906040528051906020012060018989604051610608929190610bc9565b9081526020016040518091039020828154811061062857610627610c72565b5b9060005260206000200160018154811061064557610644610c72565b5b9060005260206000200160405160200161065f9190610d95565b60405160208183030381529060405280519060200120145b1561068657600191505061069f565b808061069190610de5565b9150506104f2565b50600090505b9695505050505050565b6000808273ffffffffffffffffffffffffffffffffffffffff163b119050919050565b82805482825590600052602060002090810192821561071b579160200282015b8281111561071a57825182908051906020019061070a92919061072c565b50916020019190600101906106ec565b5b50905061072891906107b2565b5090565b82805461073890610cd0565b90600052602060002090601f01602090048101928261075a57600085556107a1565b82601f1061077357805160ff19168380011785556107a1565b828001600101855582156107a1579182015b828111156107a0578251825591602001919060010190610785565b5b5090506107ae91906107d6565b5090565b5b808211156107d257600081816107c991906107f3565b506001016107b3565b5090565b5b808211156107ef5760008160009055506001016107d7565b5090565b5080546107ff90610cd0565b6000825580601f106108115750610830565b601f01602090049060005260206000209081019061082f91906107d6565b5b50565b60008115159050919050565b61084881610833565b82525050565b6000602082019050610863600083018461083f565b92915050565b600073ffffffffffffffffffffffffffffffffffffffff82169050919050565b600061089482610869565b9050919050565b6108a481610889565b82525050565b60006020820190506108bf600083018461089b565b92915050565b600080fd5b600080fd5b600080fd5b600080fd5b600080fd5b60008083601f8401126108f4576108f36108cf565b5b8235905067ffffffffffffffff811115610911576109106108d4565b5b60208301915083600182028301111561092d5761092c6108d9565b5b9250929050565b60008060008060008060608789031215610951576109506108c5565b5b600087013567ffffffffffffffff81111561096f5761096e6108ca565b5b61097b89828a016108de565b9650965050602087013567ffffffffffffffff81111561099e5761099d6108ca565b5b6109aa89828a016108de565b9450945050604087013567ffffffffffffffff8111156109cd576109cc6108ca565b5b6109d989828a016108de565b92509250509295509295509295565b600082825260208201905092915050565b7f496e697469616c697a61626c653a20636f6e747261637420697320616c72656160008201527f647920696e697469616c697a6564000000000000000000000000000000000000602082015250565b6000610a55602e836109e8565b9150610a60826109f9565b604082019050919050565b60006020820190508181036000830152610a8481610a48565b9050919050565b6000819050919050565b600060ff82169050919050565b6000819050919050565b6000610ac7610ac2610abd84610a8b565b610aa2565b610a95565b9050919050565b610ad781610aac565b82525050565b6000602082019050610af26000830184610ace565b92915050565b7f546869732066756e6374696f6e206973207265737472696374656420746f207460008201527f686520636f6e746163742773206f776e65720000000000000000000000000000602082015250565b6000610b546032836109e8565b9150610b5f82610af8565b604082019050919050565b60006020820190508181036000830152610b8381610b47565b9050919050565b600081905092915050565b82818337600083830152505050565b6000610bb08385610b8a565b9350610bbd838584610b95565b82840190509392505050565b6000610bd6828486610ba4565b91508190509392505050565b6000601f19601f8301169050919050565b6000610bff83856109e8565b9350610c0c838584610b95565b610c1583610be2565b840190509392505050565b60006060820190508181036000830152610c3b81888a610bf3565b90508181036020830152610c50818688610bf3565b90508181036040830152610c65818486610bf3565b9050979650505050505050565b7f4e487b7100000000000000000000000000000000000000000000000000000000600052603260045260246000fd5b7f4e487b7100000000000000000000000000000000000000000000000000000000600052602260045260246000fd5b60006002820490506001821680610ce857607f821691505b602082108103610cfb57610cfa610ca1565b5b50919050565b60008190508160005260206000209050919050565b60008154610d2381610cd0565b610d2d8186610b8a565b94506001821660008114610d485760018114610d5957610d8c565b60ff19831686528186019350610d8c565b610d6285610d01565b60005b83811015610d8457815481890152600182019150602081019050610d65565b838801955050505b50505092915050565b6000610da18284610d16565b915081905092915050565b7f4e487b7100000000000000000000000000000000000000000000000000000000600052601160045260246000fd5b6000819050919050565b6000610df082610ddb565b91507fffffffffffffffffffffffffffffffffffffffffffffffffffffffffffffffff8203610e2257610e21610dac565b5b60018201905091905056fea264697066735822122053f6f6c616fd7108b63187f9b02824066c752dd2fce3fff600222d628520d9ca64736f6c634300080d0033",
  "immutableReferences": {},
  "source": "/* SPDX-License-Identifier: MIT  */\npragma solidity ^0.8.13;\n\nimport \"@openzeppelin/contracts-upgradeable/proxy/utils/Initializable.sol\";\n\ncontract Integrity is Initializable {\n  address public owner;\n  mapping (string => string[][]) private data;\n\n  event FileUploaded(string dataOwner, string name, string hash);\n\n  function initialize() public initializer {\n    owner = msg.sender;\n  }\n\n  modifier restricted() {\n    require(msg.sender == owner,\n      \"This function is restricted to the contact's owner\");\n      _;\n  }\n\n  function upload(string calldata dataOwner, string calldata name, string calldata hash) restricted external {\n    data[dataOwner].push([name, hash]);\n    emit FileUploaded(dataOwner, name, hash);\n  }\n\n  function verify(string calldata dataOwner, string calldata name, string calldata hash) restricted view external returns(bool) {\n    for (uint i = 0; i < data[dataOwner].length; i++) {\n      if (keccak256(abi.encodePacked(data[dataOwner][i][0])) == keccak256(abi.encodePacked(name)) && keccak256(abi.encodePacked(data[dataOwner][i][1])) == keccak256(abi.encodePacked(hash))) {\n        return true;\n      }\n    }\n    return false;\n  }\n\n  function random() pure external returns(bool) {\n    return true;\n  }\n}\n",
  "sourcePath": "/Users/erikpaluka/workspace/personal/integrity-ethereum-smart-contracts/contracts/Integrity.sol",
  "compiler": {
    "name": "solc",
    "version": "0.8.13+commit.abaa5c0e.Emscripten.clang"
  },
  "schemaVersion": "3.4.13",
  "updatedAt": "2023-05-08T00:25:43.342Z",
  "networkType": "ethereum",
  "devdoc": {
    "kind": "dev",
    "methods": {},
    "version": 1
  },
  "userdoc": {
    "kind": "user",
    "methods": {},
    "version": 1
  }
}